:020000040000FA
:1000000040C064C063C062C061C060C05FC05EC009
:100010005DC047C15BC05AC059C058C057C056C028
:1000200055C054C053C00000000000000000000490
:1000300005070000000000000000000000000000B4
:100040000038003500320000000000370034003175
:100050000004040404040404040202020202020371
:10006000030303030302020301020408102040807B
:100070000102040810200102040810204080400002
:10008000B10311241FBECFE5D4E0DEBFCDBF10E029
:10009000A0E6B0E0EEE3F8E002C005900D92AE3BC2
:1000A000B107D9F720E0AEEBB0E001C01D92A23F4E
:1000B000B207E1F710E0C1E4D0E003C02197FE01F0
:1000C000B6D3C034D107D1F736D1B7C399CF90E0BA
:1000D000FC01E859FF4F24918F5A9F4FFC018491F6
:1000E000882399F090E0880F991FFC01E95BFF4F8E
:1000F000A591B491FC01E35CFF4F859194918FB77A
:10010000F894EC91E22BEC938FBF089590E0FC0102
:10011000EA5DFF4F3491FC01E859FF4F2491FC0147
:10012000EF5AFF4FE491EE23E1F0332349F03530ED
:10013000C9F03730D1F0343019F48FB58F778FBDD7
:10014000F0E0EE0FFF1FE35CFF4FA591B4918FB776
:10015000F89461110EC09C91E22FE095E923EC9395
:100160008FBF08958FB58F7DEACF85B58F7D85BD13
:10017000E7CFEC91E22BF3CFCF93DF93C82FD0E002
:100180008091DF00D81750F4ED2FF0E0E953FF4FD6
:100190006091CA008785BADFDF5FF2CFEC2FF0E015
:1001A000E953FF4F6091C8008781DF91CF91AECFB7
:1001B000CF93DF93C82FD0E08091DE00D81750F4A2
:1001C000ED2FF0E0E953FF4F6091C80087819EDF7B
:1001D000DF5FF2CFEC2FF0E0E953FF4F6091CA00F0
:1001E0008785DF91CF9192CF1F93CF93DF93C82F55
:1001F000D0E0C953DF4F6091C7008F8187DF10E0E7
:100200006A968091DF001817A0F4E12FF0E0888152
:1002100090E0012E02C0959587950A94E2F780FF41
:1002200006C0E953FF4F6091C90087856FDF1F5FEC
:10023000E8CFDF91CF911F9108950F931F93CF9334
:10024000C82FE82FF0E0E953FF4F6091C900878580
:100250005DDF01E010E002C0000F111FCA95E2F758
:10026000C0E08091DE00C81780F4EC2FF0E0E95385
:10027000FF4F828D90E080239123892B21F06091A4
:10028000C700878143DFCF5FECCFCF911F910F91E4
:10029000089500008530910518F004970197F1F753
:1002A00008951F920F920FB60F9211242F933F9330
:1002B0008F939F93AF93BF938091C3009091C4009D
:1002C000A091C500B091C6003091C2002CE0230F70
:1002D0002D3768F12FE8230F0596A11DB11D20933E
:1002E000C2008093C3009093C400A093C500B09354
:1002F000C6008091BE009091BF00A091C000B09157
:10030000C1000196A11DB11D8093BE009093BF0056
:10031000A093C000B093C100BF91AF919F918F9106
:100320003F912F910F900FBE0F901F90189504963C
:10033000A11DB11DD4CFCF93DF93CDB7DEB76197A9
:100340000FB6F894DEBF0FBECDBF789483B783603D
:1003500083BF89B7816089BF82E08EBD8FB5816020
:100360008FBD85B5846085BD85B5806485BD85E814
:1003700086B91AB88091600090916100A0916200E6
:10038000B091630089879A87AB87BC8788E0E4E6F1
:10039000F0E08E010F5F1F4FD80101900D928A95FA
:1003A000E1F71092CB001092CC001092CD0084E0C7
:1003B0008093DE0088E08093DF001092C70081E028
:1003C0008093C9008093C8001092CA00F801A6ED7E
:1003D000B0E0CE01099621912D93E817F907D9F7DE
:1003E00089858093CE008A858093CF008B8580930A
:1003F000D0008C858093D100F12C8091DE00F8161E
:1004000080F48F2D90E09C0129533F4F6901F90141
:1004100087815DDE6091C800F601878177DEF39405
:10042000ECCFF12C8091DF00F81650F09091DE00B7
:10043000E1EEF0E080E0981799F011928F5FFBCF2A
:100440008F2D90E09C0129533F4F6901F901878569
:100450003EDE6091CA00F601878558DEF394E2CF54
:1004600080E0A6DE80E088DE88E097E09093EE00F2
:100470008093ED001092F0001092EF001092F100C6
:10048000F091DE00FD87CF2ED12C1601220C331CFB
:10049000220C331CF101EB56FF4F80819181A28128
:1004A000B381833D9440A105B1052CF5F8018E2F51
:1004B000801B3D85831708F46DC043E0C41AD10842
:1004C000A7ECB0E0980190E080E05D85851708F02A
:1004D0007FC0F90141919F01E42FF0E0E459FF4F03
:1004E00040818C159D0509F471C05A964C935A971A
:1004F00001961196EACFD101AF56BF4F8D919D91D4
:100500000D90BC91A02D21E030E040E050E0281B90
:10051000390B4A0B5B0BDA01C901833D9440A105FD
:10052000B10524F67F011F870E872CEFA601240357
:10053000C001259F900D1124998B888B52ED452E7B
:1005400054E0552E612C712C85E9E81680E0F80600
:1005500021F194E0E91AF108E889F989EE0DFF1D0F
:10056000E20DF31D80809180A280B380C301B201AF
:10057000A501940108D1EE85FF852193FF87EE87C1
:10058000A22FB0E0A50194011AD1461A570A680AB1
:10059000790ADACF55E251938ACF8091CD0081114B
:1005A0008CCF960123503109E82FF0E0E217F307D2
:1005B0000CF083CFE00FF11F9081911104C044E251
:1005C00040838F5FF1CF9A30E0F777CF40688DCFCF
:1005D0008091CC00811193C03FB7F8948091BE0008
:1005E0009091BF00A091C000B091C10022B708B6A1
:1005F00000FE05C02F3F19F00196A11DB11D3FBFA0
:10060000BA2FA92F982F8827820F911DA11DB11DE8
:1006100044E0880F991FAA1FBB1F4A95D1F720916C
:10062000F1004091E9005091EA006091EB00709177
:10063000EC006C017D01C41AD50AE60AF70A409164
:10064000EF005091F000211104C04091ED00509155
:10065000EE00052E000C660B770BC416D506E606D9
:10066000F7065CF18093E9009093EA00A093EB0019
:10067000B093EC008091E0009091CB00911124C0E8
:10068000222389F01092F1008091E0008F5F809327
:10069000E0009091DF00891710F01092E000809147
:1006A000E000CBDD0AC084DD8091EF009091F00086
:1006B000892B51F3F1E0F093F10020E030E0232B9F
:1006C00009F4DECE9DDCDCCE222389F01092F1000D
:1006D0008091E0008F5F8093E0009091DE008917A9
:1006E00010F01092E0008091E0007EDDE6CF44DD66
:1006F0008091EF009091F000892B51F3DBCF809136
:10070000CB00F12C811116C08091DF00F816A8F6FD
:100710008F2D93DD8091ED009091EE00BADD8F2D4D
:1007200047DD8091EF009091F000009709F0B1DD76
:10073000F394EACF8091DE00F81608F0BECF8F2D3B
:1007400053DD8091ED009091EE00A3DD8F2D14DD3F
:100750008091EF009091F000009709F09ADDF394FA
:10076000E9CFE7ECF0E080ED97E097A386A311A630
:1007700010A612A6178A118E12A213A214A215A2F5
:10078000148215820895052E97FB16F400940FD05D
:1007900057FD05D01ED007FC02D046F408C0509586
:1007A0004095309521953F4F4F4F5F4F089590955D
:1007B0008095709561957F4F8F4F9F4F08952BD0F7
:1007C000A59F900DB49F900DA49F800D911D1124A5
:1007D0000895A1E21A2EAA1BBB1BFD010DC0AA1F82
:1007E000BB1FEE1FFF1FA217B307E407F50720F09A
:1007F000A21BB30BE40BF50B661F771F881F991F15
:100800001A9469F760957095809590959B01AC015D
:10081000BD01CF010895A29FB001B39FC001A39F66
:1008200001D0B29F700D811D1124911D0895EE0F0E
:10083000FF1F0590F491E02D0994F894FFCF050671
:100840000708090A0B0C0D0E0F103F065B4F666D73
:100850007D077F6F777C395E79713D76300E763813
:1008600000543F7367506D783E3E00766E5B0040EB
:10087000806308010000000A00000064000000E836
:1008800003000010270000A086010040420F0080F6
:0C08900096980000E1F50500CA9A3B00B4
:101E800011248FE594E09EBF8DBF24B614BE80E080
:101E900071D021FEC7C08EE06DD0AFE7BFEF809953
:101EA000FECF9096809BFDCFB9B91197F1F782E0F4
:101EB0008BB988E18AB94FD0C82F823569F45ED0DA
:101EC000E0E4FEE1A89583E08BD089D0E054F109ED
:101ED000C8F78DE23CD0EFCF8D7FD9F446D0D82F14
:101EE000A0E0B1E038D08D93DA13FCCFA0E0B1E0F0
:101EF00045D0C1110CC0FFBBEEBB8D918DBBE29AEA
:101F0000E19A3196E199FECFD150A9F7E2CF40D0C6
:101F1000E0CFC33041F429D0C82F30D0859117D0FD
:101F2000C150E1F7D6CFC13061F41FD0C82F26D001
:101F3000FFBBEEBBE09A8DB30AD03196C150C1F71A
:101F4000C8CFC13511F488E015D018D0C2CF5D9B41
:101F5000FECF8CB90895C59ABD9A5F9BFECF5C9960
:101F600010C0A8958CB1C5980895F5DFE82FF3DF70
:101F7000F82FF1CF98E191BD81BD0895ECDF80325B
:101F800019F088E0F7DFFFCF80EAE1CFFB01DC0149
:101F9000E07C70E47A0F9F01E0388EE1F80728F5C5
:101FA000309629F48FE38D938FEC8C93119790E00A
:101FB00045915D9145139160A713FACFF901A054A3
:101FC000B10990FF12C083E00BD081E00D901D900D
:101FD00007D03296A713FACFF90185E001D081E14D
:0E1FE00087BFE89517B610FCFDCF11240895B9
:061FFA000612C7CFE7400C
:00000001FF
